{
  "contractName": "Election",
  "abi": [
    {
      "inputs": [],
      "payable": false,
      "stateMutability": "nonpayable",
      "type": "constructor"
    },
    {
      "anonymous": false,
      "inputs": [
        {
          "indexed": false,
          "internalType": "uint256",
          "name": "candidateID",
          "type": "uint256"
        },
        {
          "indexed": false,
          "internalType": "string",
          "name": "candidateName",
          "type": "string"
        },
        {
          "indexed": false,
          "internalType": "string",
          "name": "candidateProposal",
          "type": "string"
        }
      ],
      "name": "AddedACandidate",
      "type": "event"
    },
    {
      "anonymous": false,
      "inputs": [
        {
          "indexed": false,
          "internalType": "address",
          "name": "voter",
          "type": "address"
        }
      ],
      "name": "AddedAVoter",
      "type": "event"
    },
    {
      "anonymous": false,
      "inputs": [
        {
          "indexed": false,
          "internalType": "address",
          "name": "delegate",
          "type": "address"
        }
      ],
      "name": "DelegatedSuccessfully",
      "type": "event"
    },
    {
      "anonymous": false,
      "inputs": [
        {
          "indexed": false,
          "internalType": "enum Election.State",
          "name": "election_state",
          "type": "uint8"
        }
      ],
      "name": "ElectionEnd",
      "type": "event"
    },
    {
      "anonymous": false,
      "inputs": [
        {
          "indexed": false,
          "internalType": "enum Election.State",
          "name": "election_state",
          "type": "uint8"
        }
      ],
      "name": "ElectionStart",
      "type": "event"
    },
    {
      "anonymous": false,
      "inputs": [
        {
          "indexed": false,
          "internalType": "uint256",
          "name": "candidateId",
          "type": "uint256"
        }
      ],
      "name": "VotedSuccessfully",
      "type": "event"
    },
    {
      "constant": true,
      "inputs": [],
      "name": "candidate_count",
      "outputs": [
        {
          "internalType": "uint256",
          "name": "",
          "type": "uint256"
        }
      ],
      "payable": false,
      "stateMutability": "view",
      "type": "function"
    },
    {
      "constant": true,
      "inputs": [],
      "name": "checkState",
      "outputs": [
        {
          "internalType": "string",
          "name": "",
          "type": "string"
        }
      ],
      "payable": false,
      "stateMutability": "view",
      "type": "function"
    },
    {
      "constant": true,
      "inputs": [],
      "name": "getAdmin",
      "outputs": [
        {
          "internalType": "address",
          "name": "",
          "type": "address"
        }
      ],
      "payable": false,
      "stateMutability": "view",
      "type": "function"
    },
    {
      "constant": false,
      "inputs": [],
      "name": "setManager",
      "outputs": [],
      "payable": false,
      "stateMutability": "nonpayable",
      "type": "function"
    },
    {
      "constant": false,
      "inputs": [
        {
          "internalType": "string",
          "name": "_name",
          "type": "string"
        },
        {
          "internalType": "string",
          "name": "_proposal",
          "type": "string"
        }
      ],
      "name": "addCandidate",
      "outputs": [],
      "payable": false,
      "stateMutability": "nonpayable",
      "type": "function"
    },
    {
      "constant": false,
      "inputs": [
        {
          "internalType": "address",
          "name": "_voter",
          "type": "address"
        }
      ],
      "name": "addVoter",
      "outputs": [],
      "payable": false,
      "stateMutability": "nonpayable",
      "type": "function"
    },
    {
      "constant": false,
      "inputs": [],
      "name": "startElection",
      "outputs": [],
      "payable": false,
      "stateMutability": "nonpayable",
      "type": "function"
    },
    {
      "constant": true,
      "inputs": [
        {
          "internalType": "uint256",
          "name": "_ID",
          "type": "uint256"
        }
      ],
      "name": "displayCandidate",
      "outputs": [
        {
          "internalType": "uint256",
          "name": "",
          "type": "uint256"
        },
        {
          "internalType": "string",
          "name": "",
          "type": "string"
        },
        {
          "internalType": "string",
          "name": "",
          "type": "string"
        }
      ],
      "payable": false,
      "stateMutability": "view",
      "type": "function"
    },
    {
      "constant": true,
      "inputs": [],
      "name": "showWinner",
      "outputs": [
        {
          "internalType": "string",
          "name": "",
          "type": "string"
        }
      ],
      "payable": false,
      "stateMutability": "view",
      "type": "function"
    },
    {
      "constant": false,
      "inputs": [
        {
          "internalType": "address",
          "name": "_delegate",
          "type": "address"
        }
      ],
      "name": "delegateVote",
      "outputs": [],
      "payable": false,
      "stateMutability": "nonpayable",
      "type": "function"
    },
    {
      "constant": false,
      "inputs": [
        {
          "internalType": "uint256",
          "name": "_ID",
          "type": "uint256"
        }
      ],
      "name": "vote",
      "outputs": [],
      "payable": false,
      "stateMutability": "nonpayable",
      "type": "function"
    },
    {
      "constant": false,
      "inputs": [],
      "name": "endElection",
      "outputs": [],
      "payable": false,
      "stateMutability": "nonpayable",
      "type": "function"
    },
    {
      "constant": true,
      "inputs": [
        {
          "internalType": "uint256",
          "name": "_ID",
          "type": "uint256"
        }
      ],
      "name": "showResults",
      "outputs": [
        {
          "internalType": "uint256",
          "name": "",
          "type": "uint256"
        },
        {
          "internalType": "string",
          "name": "",
          "type": "string"
        },
        {
          "internalType": "uint256",
          "name": "",
          "type": "uint256"
        }
      ],
      "payable": false,
      "stateMutability": "view",
      "type": "function"
    }
  ],
  "bytecode": "0x608060405234801561001057600080fd5b506000600360146101000a81548160ff0219169083600281111561003057fe5b0217905550612192806100446000396000f3fe608060405234801561001057600080fd5b50600436106100cf5760003560e01c806379614b2e1161008c57806396dfcbea1161006657806396dfcbea146104a9578063b31e1d4d1461052c578063b7e0326414610570578063f4ab9adf146105f3576100cf565b806379614b2e146102d05780638d258104146103855780638dc837711461038f576100cf565b80630121b93f146100d457806326541b56146101025780634b1c4c291461025457806359f784681461027257806362d73eb81461027c5780636e9960c314610286575b600080fd5b610100600480360360208110156100ea57600080fd5b8101908080359060200190929190505050610637565b005b6102526004803603604081101561011857600080fd5b810190808035906020019064010000000081111561013557600080fd5b82018360208201111561014757600080fd5b8035906020019184600183028401116401000000008311171561016957600080fd5b91908080601f016020809104026020016040519081016040528093929190818152602001838380828437600081840152601f19601f820116905080830192505050505050509192919290803590602001906401000000008111156101cc57600080fd5b8201836020820111156101de57600080fd5b8035906020019184600183028401116401000000008311171561020057600080fd5b91908080601f016020809104026020016040519081016040528093929190818152602001838380828437600081840152601f19601f8201169050808301925050505050505091929192905050506109a3565b005b61025c610ca1565b6040518082815260200191505060405180910390f35b61027a610ca7565b005b610284610dc7565b005b61028e610f82565b604051808273ffffffffffffffffffffffffffffffffffffffff1673ffffffffffffffffffffffffffffffffffffffff16815260200191505060405180910390f35b6102fc600480360360208110156102e657600080fd5b8101908080359060200190929190505050610fac565b6040518084815260200180602001838152602001828103825284818151815260200191508051906020019080838360005b8381101561034857808201518184015260208101905061032d565b50505050905090810190601f1680156103755780820380516001836020036101000a031916815260200191505b5094505050505060405180910390f35b61038d6111a6565b005b6103bb600480360360208110156103a557600080fd5b81019080803590602001909291905050506111e9565b604051808481526020018060200180602001838103835285818151815260200191508051906020019080838360005b838110156104055780820151818401526020810190506103ea565b50505050905090810190601f1680156104325780820380516001836020036101000a031916815260200191505b50838103825284818151815260200191508051906020019080838360005b8381101561046b578082015181840152602081019050610450565b50505050905090810190601f1680156104985780820380516001836020036101000a031916815260200191505b509550505050505060405180910390f35b6104b1611376565b6040518080602001828103825283818151815260200191508051906020019080838360005b838110156104f15780820151818401526020810190506104d6565b50505050905090810190601f16801561051e5780820380516001836020036101000a031916815260200191505b509250505060405180910390f35b61056e6004803603602081101561054257600080fd5b81019080803573ffffffffffffffffffffffffffffffffffffffff1690602001909291905050506114bc565b005b610578611bba565b6040518080602001828103825283818151815260200191508051906020019080838360005b838110156105b857808201518184015260208101905061059d565b50505050905090810190601f1680156105e55780820380516001836020036101000a031916815260200191505b509250505060405180910390f35b6106356004803603602081101561060957600080fd5b81019080803573ffffffffffffffffffffffffffffffffffffffff169060200190929190505050611d63565b005b6001600281111561064457fe5b600360149054906101000a900460ff16600281111561065f57fe5b146106d2576040517f08c379a00000000000000000000000000000000000000000000000000000000081526004018080602001828103825260208152602001807f656c656374696f6e206973206e6f7420696e206f6e676f696e6720706861736581525060200191505060405180910390fd5b6000803373ffffffffffffffffffffffffffffffffffffffff1673ffffffffffffffffffffffffffffffffffffffff16815260200190815260200160002060000160009054906101000a900460ff1615801561076f575060008060003373ffffffffffffffffffffffffffffffffffffffff1673ffffffffffffffffffffffffffffffffffffffff16815260200190815260200160002060010154115b6107e1576040517f08c379a00000000000000000000000000000000000000000000000000000000081526004018080602001828103825260178152602001807f766f7465722068617320616c726561647920766f74656400000000000000000081525060200191505060405180910390fd5b806000811180156107f457506004548111155b610866576040517f08c379a00000000000000000000000000000000000000000000000000000000081526004018080602001828103825260118152602001807f696e76616c69642063616e64696461746500000000000000000000000000000081525060200191505060405180910390fd5b60016000803373ffffffffffffffffffffffffffffffffffffffff1673ffffffffffffffffffffffffffffffffffffffff16815260200190815260200160002060000160006101000a81548160ff021916908315150217905550816000803373ffffffffffffffffffffffffffffffffffffffff1673ffffffffffffffffffffffffffffffffffffffff168152602001908152602001600020600201819055506000803373ffffffffffffffffffffffffffffffffffffffff1673ffffffffffffffffffffffffffffffffffffffff1681526020019081526020016000206001015460026000848152602001908152602001600020600082825401925050819055507fb998094ae4cb22a6f07f376f832cf3a023584fe7eeb630d06786614616da3d55826040518082815260200191505060405180910390a15050565b600360009054906101000a900473ffffffffffffffffffffffffffffffffffffffff1673ffffffffffffffffffffffffffffffffffffffff163373ffffffffffffffffffffffffffffffffffffffff1614610a49576040517f08c379a000000000000000000000000000000000000000000000000000000000815260040180806020018281038252602a815260200180612134602a913960400191505060405180910390fd5b60006002811115610a5657fe5b600360149054906101000a900460ff166002811115610a7157fe5b14610ae4576040517f08c379a000000000000000000000000000000000000000000000000000000000815260040180806020018281038252601d8152602001807f656c656374696f6e2069732079657420746f206265206372656174656400000081525060200191505060405180910390fd5b60046000815480929190600101919050555060045460016000600454815260200190815260200160002060000181905550816001600060045481526020019081526020016000206001019080519060200190610b41929190612062565b50806001600060045481526020019081526020016000206002019080519060200190610b6e929190612062565b506000600260006004548152602001908152602001600020819055507ffc34c9359c5b9595266fd63d772032963fc05127a4ecaa3351593fba44780b416004548383604051808481526020018060200180602001838103835285818151815260200191508051906020019080838360005b83811015610bfa578082015181840152602081019050610bdf565b50505050905090810190601f168015610c275780820380516001836020036101000a031916815260200191505b50838103825284818151815260200191508051906020019080838360005b83811015610c60578082015181840152602081019050610c45565b50505050905090810190601f168015610c8d5780820380516001836020036101000a031916815260200191505b509550505050505060405180910390a15050565b60045481565b600360009054906101000a900473ffffffffffffffffffffffffffffffffffffffff1673ffffffffffffffffffffffffffffffffffffffff163373ffffffffffffffffffffffffffffffffffffffff1614610d4d576040517f08c379a000000000000000000000000000000000000000000000000000000000815260040180806020018281038252602a815260200180612134602a913960400191505060405180910390fd5b6002600360146101000a81548160ff02191690836002811115610d6c57fe5b02179055507f0fd6091d4bdaaad907e13471c108ad8a941c3947c3d6917d96d09632e0d50896600360149054906101000a900460ff1660405180826002811115610db257fe5b60ff16815260200191505060405180910390a1565b600360009054906101000a900473ffffffffffffffffffffffffffffffffffffffff1673ffffffffffffffffffffffffffffffffffffffff163373ffffffffffffffffffffffffffffffffffffffff1614610e6d576040517f08c379a000000000000000000000000000000000000000000000000000000000815260040180806020018281038252602a815260200180612134602a913960400191505060405180910390fd5b60006002811115610e7a57fe5b600360149054906101000a900460ff166002811115610e9557fe5b14610f08576040517f08c379a000000000000000000000000000000000000000000000000000000000815260040180806020018281038252601d8152602001807f656c656374696f6e2069732079657420746f206265206372656174656400000081525060200191505060405180910390fd5b6001600360146101000a81548160ff02191690836002811115610f2757fe5b02179055507fa1b6ba526a9b19fba03d953e88a0f7ca26a3f8cb62e9e2e08318c1d8e99ec100600360149054906101000a900460ff1660405180826002811115610f6d57fe5b60ff16815260200191505060405180910390a1565b6000600360009054906101000a900473ffffffffffffffffffffffffffffffffffffffff16905090565b600060606000600280811115610fbe57fe5b600360149054906101000a900460ff166002811115610fd957fe5b1461104c576040517f08c379a000000000000000000000000000000000000000000000000000000000815260040180806020018281038252601d8152602001807f656c656374696f6e206973206e6f742079657420636f6d706c6574656400000081525060200191505060405180910390fd5b8360008111801561105f57506004548111155b6110d1576040517f08c379a00000000000000000000000000000000000000000000000000000000081526004018080602001828103825260118152602001807f696e76616c69642063616e64696461746500000000000000000000000000000081525060200191505060405180910390fd5b84600160008781526020019081526020016000206001016002600088815260200190815260200160002054818054600181600116156101000203166002900480601f0160208091040260200160405190810160405280929190818152602001828054600181600116156101000203166002900480156111915780601f1061116657610100808354040283529160200191611191565b820191906000526020600020905b81548152906001019060200180831161117457829003601f168201915b50505050509150935093509350509193909250565b33600360006101000a81548173ffffffffffffffffffffffffffffffffffffffff021916908373ffffffffffffffffffffffffffffffffffffffff160217905550565b600060608060016000858152602001908152602001600020600001546001600086815260200190815260200160002060010160016000878152602001908152602001600020600201818054600181600116156101000203166002900480601f0160208091040260200160405190810160405280929190818152602001828054600181600116156101000203166002900480156112c65780601f1061129b576101008083540402835291602001916112c6565b820191906000526020600020905b8154815290600101906020018083116112a957829003601f168201915b50505050509150808054600181600116156101000203166002900480601f0160208091040260200160405190810160405280929190818152602001828054600181600116156101000203166002900480156113625780601f1061133757610100808354040283529160200191611362565b820191906000526020600020905b81548152906001019060200180831161134557829003601f168201915b505050505090509250925092509193909250565b60606000600281111561138557fe5b600360149054906101000a900460ff1660028111156113a057fe5b14156113e3576040518060400160405280600781526020017f435245415445440000000000000000000000000000000000000000000000000081525090506114b9565b600160028111156113f057fe5b600360149054906101000a900460ff16600281111561140b57fe5b141561144e576040518060400160405280600781526020017f4f4e474f494e470000000000000000000000000000000000000000000000000081525090506114b9565b60028081111561145a57fe5b600360149054906101000a900460ff16600281111561147557fe5b14156114b8576040518060400160405280600481526020017f53544f500000000000000000000000000000000000000000000000000000000081525090506114b9565b5b90565b6002808111156114c857fe5b600360149054906101000a900460ff1660028111156114e357fe5b1415611557576040517f08c379a000000000000000000000000000000000000000000000000000000000815260040180806020018281038252601d8152602001807f656c656374696f6e206973206e6f742079657420636f6d706c6574656400000081525060200191505060405180910390fd5b6000803373ffffffffffffffffffffffffffffffffffffffff1673ffffffffffffffffffffffffffffffffffffffff16815260200190815260200160002060000160009054906101000a900460ff161580156115f4575060008060003373ffffffffffffffffffffffffffffffffffffffff1673ffffffffffffffffffffffffffffffffffffffff16815260200190815260200160002060010154115b611666576040517f08c379a00000000000000000000000000000000000000000000000000000000081526004018080602001828103825260178152602001807f766f7465722068617320616c726561647920766f74656400000000000000000081525060200191505060405180910390fd5b600360009054906101000a900473ffffffffffffffffffffffffffffffffffffffff1673ffffffffffffffffffffffffffffffffffffffff163373ffffffffffffffffffffffffffffffffffffffff16141561170d576040517f08c379a000000000000000000000000000000000000000000000000000000000815260040180806020018281038252602c815260200180612108602c913960400191505060405180910390fd5b3373ffffffffffffffffffffffffffffffffffffffff168173ffffffffffffffffffffffffffffffffffffffff1614156117af576040517f08c379a000000000000000000000000000000000000000000000000000000000815260040180806020018281038252601e8152602001807f73656c662064656c65676174696f6e206973206e6f7420616c6c6f776564000081525060200191505060405180910390fd5b60008190505b600073ffffffffffffffffffffffffffffffffffffffff166000808373ffffffffffffffffffffffffffffffffffffffff1673ffffffffffffffffffffffffffffffffffffffff16815260200190815260200160002060000160019054906101000a900473ffffffffffffffffffffffffffffffffffffffff1673ffffffffffffffffffffffffffffffffffffffff16146118ec576000808273ffffffffffffffffffffffffffffffffffffffff1673ffffffffffffffffffffffffffffffffffffffff16815260200190815260200160002060000160019054906101000a900473ffffffffffffffffffffffffffffffffffffffff1690503373ffffffffffffffffffffffffffffffffffffffff168173ffffffffffffffffffffffffffffffffffffffff1614156118e757600080fd5b6117b5565b806000803373ffffffffffffffffffffffffffffffffffffffff1673ffffffffffffffffffffffffffffffffffffffff16815260200190815260200160002060000160016101000a81548173ffffffffffffffffffffffffffffffffffffffff021916908373ffffffffffffffffffffffffffffffffffffffff1602179055507f1d8bb384496307944db771bb667a3f094b1ff3e7063d7c8f88068cf4eb2f728482604051808273ffffffffffffffffffffffffffffffffffffffff1673ffffffffffffffffffffffffffffffffffffffff16815260200191505060405180910390a160016000803373ffffffffffffffffffffffffffffffffffffffff1673ffffffffffffffffffffffffffffffffffffffff16815260200190815260200160002060000160006101000a81548160ff0219169083151502179055506000808273ffffffffffffffffffffffffffffffffffffffff1673ffffffffffffffffffffffffffffffffffffffff16815260200190815260200160002060000160009054906101000a900460ff1615611b25576000803373ffffffffffffffffffffffffffffffffffffffff1673ffffffffffffffffffffffffffffffffffffffff16815260200190815260200160002060010154600260008060008573ffffffffffffffffffffffffffffffffffffffff1673ffffffffffffffffffffffffffffffffffffffff16815260200190815260200160002060020154815260200190815260200160002060008282540192505081905550611bb6565b6000803373ffffffffffffffffffffffffffffffffffffffff1673ffffffffffffffffffffffffffffffffffffffff168152602001908152602001600020600101546000808373ffffffffffffffffffffffffffffffffffffffff1673ffffffffffffffffffffffffffffffffffffffff168152602001908152602001600020600101600082825401925050819055505b5050565b6060600280811115611bc857fe5b600360149054906101000a900460ff166002811115611be357fe5b14611c56576040517f08c379a000000000000000000000000000000000000000000000000000000000815260040180806020018281038252601d8152602001807f656c656374696f6e206973206e6f742079657420636f6d706c6574656400000081525060200191505060405180910390fd5b600060606000600190505b6004548111611d5a578260026000838152602001908152602001600020541115611d4d57600160008281526020019081526020016000206001018054600181600116156101000203166002900480601f016020809104026020016040519081016040528092919081815260200182805460018160011615610100020316600290048015611d2f5780601f10611d0457610100808354040283529160200191611d2f565b820191906000526020600020905b815481529060010190602001808311611d1257829003601f168201915b50505050509150600260008281526020019081526020016000205492505b8080600101915050611c61565b50809250505090565b600360009054906101000a900473ffffffffffffffffffffffffffffffffffffffff1673ffffffffffffffffffffffffffffffffffffffff163373ffffffffffffffffffffffffffffffffffffffff1614611e09576040517f08c379a000000000000000000000000000000000000000000000000000000000815260040180806020018281038252602a815260200180612134602a913960400191505060405180910390fd5b60006002811115611e1657fe5b600360149054906101000a900460ff166002811115611e3157fe5b14611ea4576040517f08c379a000000000000000000000000000000000000000000000000000000000815260040180806020018281038252601d8152602001807f656c656374696f6e2069732079657420746f206265206372656174656400000081525060200191505060405180910390fd5b806000808273ffffffffffffffffffffffffffffffffffffffff1673ffffffffffffffffffffffffffffffffffffffff16815260200190815260200160002060000160009054906101000a900460ff16158015611f42575060008060008373ffffffffffffffffffffffffffffffffffffffff1673ffffffffffffffffffffffffffffffffffffffff16815260200190815260200160002060010154145b611fb4576040517f08c379a000000000000000000000000000000000000000000000000000000000815260040180806020018281038252601b8152602001807f766f74657220697320616c72656164792072656769737465726564000000000081525060200191505060405180910390fd5b60016000808473ffffffffffffffffffffffffffffffffffffffff1673ffffffffffffffffffffffffffffffffffffffff168152602001908152602001600020600101819055507f973f11f33f84e792db77674e488c69e4d180b4a4a7d946d8d29a1eae3023a76682604051808273ffffffffffffffffffffffffffffffffffffffff1673ffffffffffffffffffffffffffffffffffffffff16815260200191505060405180910390a15050565b828054600181600116156101000203166002900490600052602060002090601f016020900481019282601f106120a357805160ff19168380011785556120d1565b828001600101855582156120d1579182015b828111156120d05782518255916020019190600101906120b5565b5b5090506120de91906120e2565b5090565b61210491905b808211156121005760008160009055506001016120e8565b5090565b9056fe6f776e6572206973206e6f7420616c6c6f77656420746f2061636365737320746869732066756e6374696f6e6f6e6c7920746865206f776e6572206861732061636365737320746f20746869732066756e6374696f6ea265627a7a723158203cba6a15d820ee501ee5d93aa323aa57d2c6cea808bd66c8d6728749b5fb47f864736f6c63430005100032",
  "source": "// SPDX-License-Identifier: GPL-3.0\r\npragma solidity ^0.5.0;\r\n\r\ncontract Election {\r\n    //Structure that represents a registered voter in the election\r\n    struct Voter {\r\n        bool hasVoted; //Whether or not the voter has voted yet\r\n        address delegate; // The address of the delegate that the voter has chosen (default to the voter itself)\r\n        uint256 weight; // Weight of the Voter\r\n        uint256 voteTowards; //States the candidate's ID to which the voter has voted\r\n    }\r\n    //Structure that represents a registered candidate in the election\r\n    struct Candidate {\r\n        uint256 ID; // The unique ID of the candidate\r\n        string name; // Name of the candidate\r\n        string proposal; // The proposal/promises of the candidate\r\n    }\r\n\r\n    mapping(address => Voter) private voters; //address of voter mapped to the voter struct - To view all registered voters\r\n    mapping(uint256 => Candidate) private candidates; // ID of candidate mapped to the candidate struct - To view details of all registered candidates\r\n    mapping(uint256 => uint256) private voteCount; // ID of the candidate mapped to the votes of the candidate privately\r\n\r\n    address  admin; // The address of the official/authority conducting the election\r\n\r\n    enum State {CREATED, ONGOING, STOP}\r\n    /*This enum represents the state of the election -\r\n    CREATED - The election contract has been created, voting has not begun yet\r\n    ONGOING - The voting has begun and is currently active\r\n    STOP - The voting period has ended and it is time for counting\r\n    */\r\n\r\n    State electionState; // A variable of the type enum State to represent the election state\r\n\r\n    uint256 public candidate_count; // Keeps a count of the registered candidates\r\n\r\n    //modifier to check if the address is of the admin's as several functions can only be accessed by the admin\r\n    modifier checkAdmin() {\r\n        require(\r\n            msg.sender == admin,\r\n            \"only the owner has access to this function\"\r\n        );\r\n        _;\r\n    }\r\n\r\n    //modifiers to check for the states of the election\r\n    modifier checkIfCreated() {\r\n        require(\r\n            electionState == State.CREATED,\r\n            \"election is yet to be created\"\r\n        );\r\n        _;\r\n    }\r\n\r\n    modifier checkIfOngoing() {\r\n        require(\r\n            electionState == State.ONGOING,\r\n            \"election is not in ongoing phase\"\r\n        );\r\n        _;\r\n    }\r\n\r\n    modifier checkIfComplete() {\r\n        require(electionState == State.STOP, \"election is not yet completed\");\r\n        _;\r\n    }\r\n\r\n    modifier checkNotComplete() {\r\n        require(electionState != State.STOP, \"election is not yet completed\");\r\n        _;\r\n    }\r\n\r\n    //modifier to check if a voter is a valid voter\r\n    modifier checkIfVoterValid() {\r\n        require(\r\n            !voters[msg.sender].hasVoted && voters[msg.sender].weight > 0,\r\n            \"voter has already voted\"\r\n        );\r\n        _;\r\n    }\r\n\r\n    //modifier to check if the candidate being voted for is a valid candidate\r\n    modifier checkIfCandidateValid(uint256 _candidateId) {\r\n        require(\r\n            _candidateId > 0 && _candidateId <= candidate_count,\r\n            \"invalid candidate\"\r\n        );\r\n        _;\r\n    }\r\n\r\n    //modifier to check if the person is not an admin\r\n    modifier checkNotAdmin() {\r\n        require(\r\n            msg.sender != admin,\r\n            \"owner is not allowed to access this function\"\r\n        );\r\n        _;\r\n    }\r\n\r\n    //modifier to check if the voter is not yet registered for the addVoter function\r\n    modifier checkNotRegistered(address voter) {\r\n        require(\r\n            !voters[voter].hasVoted && voters[voter].weight == 0,\r\n            \"voter is already registered\"\r\n        );\r\n        _;\r\n    }\r\n\r\n    //events to be logged into the blockchain\r\n    event AddedAVoter(address voter);\r\n    event VotedSuccessfully(uint256 candidateId);\r\n    event DelegatedSuccessfully(address delegate);\r\n    event ElectionStart(State election_state);\r\n    event ElectionEnd(State election_state);\r\n    event AddedACandidate(uint candidateID, string candidateName, string candidateProposal);\r\n\r\n    // Initialization\r\n    constructor() public {\r\n        electionState = State.CREATED; // Setting Eection state to CREATED\r\n    }\r\n \r\n    function checkState() public view returns (string memory)\r\n    {\r\n        if(electionState == State.CREATED)\r\n          return \"CREATED\";\r\n        else if(electionState == State.ONGOING)\r\n          return \"ONGOING\";\r\n        else if(electionState == State.STOP)\r\n          return \"STOP\";\r\n    }\r\n\r\n    function getAdmin() public view returns (address)\r\n    {\r\n        return admin;\r\n    }\r\n\r\n    function setManager() public\r\n    {\r\n        admin = msg.sender;\r\n    }\r\n    // To Add a candidate\r\n    // Only admin can add and\r\n    // candidate can be added only before election starts\r\n    function addCandidate(string memory _name, string memory _proposal)\r\n        public\r\n        checkAdmin\r\n        checkIfCreated\r\n    {\r\n        candidate_count++;\r\n        candidates[candidate_count].ID = candidate_count;\r\n        candidates[candidate_count].name = _name;\r\n        candidates[candidate_count].proposal = _proposal;\r\n        voteCount[candidate_count] = 0;\r\n        emit AddedACandidate(candidate_count, _name, _proposal);\r\n    }\r\n\r\n    // To add a voter\r\n    // only admin can add\r\n    // can add only before election starts\r\n    // can add a voter only one time\r\n    function addVoter(address _voter)\r\n        public\r\n        checkAdmin\r\n        checkIfCreated\r\n        checkNotRegistered(_voter)\r\n    {\r\n        voters[_voter].weight = 1;\r\n        emit AddedAVoter(_voter);\r\n    }\r\n\r\n    // setting Election state to ONGOING\r\n    // by admin\r\n    function startElection() public checkAdmin checkIfCreated {\r\n        electionState = State.ONGOING;\r\n        emit ElectionStart(electionState);\r\n    }\r\n\r\n    // To display candidates\r\n    function displayCandidate(uint256 _ID)\r\n        public\r\n        view\r\n        returns (\r\n            uint256,\r\n            string memory,\r\n            string memory\r\n        )\r\n    {\r\n        return (\r\n            candidates[_ID].ID,\r\n            candidates[_ID].name,\r\n            candidates[_ID].proposal\r\n        );\r\n    }\r\n\r\n    //Show winner of election\r\n    function showWinner()\r\n        public\r\n        view\r\n        checkIfComplete\r\n        returns (string memory)\r\n    {\r\n        uint256 max;\r\n        string memory winner;\r\n        for (uint256 i = 1; i <= candidate_count; i++) {\r\n            if (voteCount[i] > max) {\r\n                winner = candidates[i].name;\r\n                max = voteCount[i];\r\n            }\r\n        }\r\n        return winner;\r\n    }\r\n\r\n    // to delegate the vote\r\n    // only during election is going on\r\n    // and by a voter who has not yet voted\r\n    function delegateVote(address _delegate)\r\n        public\r\n        checkNotComplete\r\n        checkIfVoterValid\r\n        checkNotAdmin\r\n    {\r\n        require(_delegate != msg.sender, \"self delegation is not allowed\");\r\n        address to = _delegate;\r\n        while (voters[to].delegate != address(0)) {\r\n            to = voters[to].delegate;\r\n\r\n            // To prevent infinite loop\r\n            if (to == msg.sender) {\r\n                revert();\r\n            }\r\n        }\r\n        voters[msg.sender].delegate = to;\r\n        emit DelegatedSuccessfully(_delegate);\r\n        voters[msg.sender].hasVoted = true;\r\n\r\n        if (voters[to].hasVoted) {\r\n            // if delegate has already voted\r\n            // voters vote is directly added to candidates vote count\r\n            voteCount[voters[to].voteTowards] += voters[msg.sender].weight;\r\n        } else {\r\n            voters[to].weight += voters[msg.sender].weight;\r\n        }\r\n    }\r\n\r\n    // to cast the vote\r\n    function vote(uint256 _ID)\r\n        public\r\n        checkIfOngoing\r\n        checkIfVoterValid\r\n        checkIfCandidateValid(_ID)\r\n    {\r\n        voters[msg.sender].hasVoted = true;\r\n        voters[msg.sender].voteTowards = _ID;\r\n        voteCount[_ID] += voters[msg.sender].weight;\r\n        emit VotedSuccessfully(_ID);\r\n    }\r\n\r\n    // Setting Election state to STOP\r\n    // by admin\r\n    function endElection() public checkAdmin {\r\n        electionState = State.STOP;\r\n        emit ElectionEnd(electionState);\r\n    }\r\n\r\n    // to display result\r\n    function showResults(uint256 _ID)\r\n        public\r\n        view\r\n        checkIfComplete\r\n        checkIfCandidateValid(_ID)\r\n        returns (\r\n            uint256,\r\n            string memory,\r\n            uint256\r\n        )\r\n    {\r\n        return (_ID, candidates[_ID].name, voteCount[_ID]);\r\n    }\r\n}\r\n",
  "sourcePath": "C:\\Users\\dhira\\Desktop\\flutter\\EVote\\contracts\\Election.sol",
  "compiler": {
    "name": "solc",
    "version": "0.5.16+commit.9c3226ce.Emscripten.clang"
  },
  "schemaVersion": "3.2.0",
  "updatedAt": "2020-08-05T16:31:57.825Z",
  "networkType": "ethereum",
  "devdoc": {
    "methods": {}
  },
  "userdoc": {
    "methods": {}
  }
}